:020000040800F2
:1000000078070020890100082318000879140008E7
:10001000211800088F020008771B0008000000006C
:100020000000000000000000000000002718000889
:100030009102000800000000251800082918000897
:10004000A3010008A3010008A3010008A301000800
:10005000A3010008A3010008A3010008A3010008F0
:10006000A3010008A3010008A3010008A3010008E0
:10007000A3010008A3010008A3010008A3010008D0
:10008000A3010008A3010008A3010008A3010008C0
:10009000A3010008A3010008A3010008A3010008B0
:1000A000A3010008A3010008A3010008A3010008A0
:1000B0008D18000899180008A3010008A301000882
:1000C000A3010008A3010008A3010008A301000880
:1000D000A3010008A3010008A3010008A301000870
:1000E000A3010008A3010008A301000800F002F822
:1000F00000F03AF80AA090E8000C82448344AAF188
:100100000107DA4501D100F02FF8AFF2090EBAE885
:100110000F0013F0010F18BFFB1A43F0010318473B
:10012000BC1A0000DC1A0000103A24BF78C878C15D
:10013000FAD8520724BF30C830C144BF04680C60ED
:10014000704700000023002400250026103A28BF35
:1001500078C1FBD8520728BF30C148BF0B60704739
:100160001FB51FBD10B510BD00F058F81146FFF7C0
:10017000F7FF01F011FD00F076F803B4FFF7F2FF8E
:1001800003BC00F07DF8000009488047094800479B
:10019000FEE7FEE7FEE7FEE7FEE7FEE7FEE7FEE737
:1001A000FEE7FEE704480549054A064B7047000094
:1001B0008B180008ED000008780100207807002067
:1001C00078030020780300204FF0000200B51346AA
:1001D00094469646203922BFA0E80C50A0E80C5067
:1001E000B1F12001BFF4F7AF090728BFA0E80C5018
:1001F00048BF0CC05DF804EB890028BF40F8042B11
:1002000008BF704748BF20F8022B11F0804F18BF7D
:1002100000F8012B7047704770477047754600F033
:100220002BF8AE4605006946534620F00700854688
:1002300018B020B5FFF7B6FFBDE820404FF000062C
:100240004FF000074FF000084FF0000B21F00701BE
:10025000AC46ACE8C009ACE8C009ACE8C009ACE801
:10026000C0098D46704710B50446AFF300802046A4
:10027000BDE81040FFF781BF00487047140100201F
:1002800001491820ABBEFEE7260002007047FEE7DA
:10029000704772B6FEE700002DE9F84FDFF8B8911D
:1002A0000024A9F1040B23460F2709F1040AABF13E
:1002B000040EC9E00125A5402A40AA427DD1674E1F
:1002C000D1F804C0ACEB0608B44532D014DCBCF164
:1002D000030F3AD009DCBCF1000F2AD0BCF1010FAA
:1002E0001CD0BCF1020F31D11DE0BCF1110F17D0B1
:1002F000BCF1120F2AD119E0B8F5881F19D006DC1D
:10030000B8F5803F15D0B8F5801F1FD111E0B8F5C2
:10031000001F0ED0B8F5041F18D10AE0CB6815E015
:10032000CB681B1D12E0CB6808330FE0CB680C33A1
:100330000CE08B682BB1012B4FF0080303D0456113
:1003400004E0042302E0056100E00023FF2A01D855
:10035000064601E000F104064FEA840501D9A5F143
:100360002005D6F8008007FA05FC28EA0C0803FAF5
:1003700005F548EA0508C6F800804D68ED0062D52D
:10038000374DAE6946F00106AE61AD6924F0030653
:1003900005F001050095334D06EB050CDCF808501F
:1003A000A607360F07FA06F825EA0805DFF8B88031
:1003B000404503D14FF0000817E044E0DFF8AC807F
:1003C000404502D14FF001080FE0DFF8A48040451E
:1003D00002D14FF0020808E0DFF89880404502D1D2
:1003E0004FF0030801E04FF0040808FA06F848EA65
:1003F0000508CCF808804D68D9F80060ED024D463C
:1004000001D5164300E096432E604D68DAF800608F
:10041000AD02554601D5164300E096432E604D6867
:10042000DBF80060AD035D4601D5164300E096435E
:100430002E604D68DEF80060ED03754601D5164369
:1004400000E096432E60641C0D682A46E5407FF468
:1004500031AFBDE8F88F0000080401400000111022
:10046000001002400000014000080140000C014063
:1004700000100140001401400AB1016170470904F5
:10048000FBE7000001488068704700000C00002076
:100490000248816802781144816070470C00002096
:1004A000074810B5016841F010010160032000F019
:1004B00075F80F2000F006F800F024F8002010BDB9
:1004C0000020024070B50D4D04464FF47A71287833
:1004D000B1FBF0F00A490968B1FBF0F000F0BCFA9A
:1004E00048B9102C07D200222146501E00F036F8E1
:1004F00000206C6070BD012070BD00000C00002069
:10050000180000200C4808B5816941F001018161A3
:10051000816901F001010091C16941F08051C1611F
:10052000C06900F0805000900448416821F0E0610B
:1005300041F00071416008BD001002400000014020
:10054000002809DB00F01F020121914040098000D2
:1005500000F1E020C0F8001170470000F0B40E4B2D
:100560001B680C46C3F30223C3F10705042D00D911
:100570000425191D072901D2002300E0DB1E0126F6
:1005800006FA05F1491E214099409E40761E16400C
:100590003143F0BC01F0F0BA0CED00E0064900F088
:1005A000070208684FF6FF03184040EA0220034A9A
:1005B00010430860704700000CED00E00000FA05F1
:1005C0002DE9F0470F46050061D0434E306800F03A
:1005D0000700B84209D2306820F007003843306085
:1005E000306800F00700B84251D128683B4C8107C1
:1005F00012D5400703D5606840F4E0606060287859
:10060000000703D5606840F4605060606068A968C6
:1006100020F0F000084360602878C00728D06868A0
:10062000012810D02168022810D0890700292EDA6D
:10063000616821F0030101436160FFF723FF8046F9
:1006400041F288390DE021688903EFE78901EDE780
:10065000FFF718FFA0EB0801494502D90320BDE8C8
:10066000F0876068696800F00C00B0EB810FEFD193
:10067000306800F00700B8420BD9306820F007005E
:1006800038433060306800F00700B84201D00120E4
:10069000E5E72878400705D56068E96820F4E06060
:1006A000084360602878000706D56068296920F44F
:1006B000605040EAC100606000F018F86168084AC4
:1006C000C1F30311515CC840064908600648006840
:1006D000FFF7F8FE0020C2E70020024000100240B1
:1006E000CC1B000818000020100000200E4A5168A2
:1006F0000E4801F00C03042B11D0082B0FD10C482D
:10070000C1F38343C903C05C0AD55168084AC1F3E9
:100710004041921E515C054A5043B0FBF1F07047D6
:1007200004494843704700000010024000127A005C
:10073000BC1B000800093D002DE9F84F040070D0F3
:100740002078C04DC00749D06868C0F381000128F7
:1007500007D06868C0F38100022809D16868C00327
:1007600006D52868800339D560680028E7D035E0D1
:100770006068B0F5803F0BD010B1B0F5A02F11D05C
:10078000286820F480302860286820F4802002E067
:10079000286840F480302860606890B1FFF772FEEE
:1007A00006460AE0286840F480202860F0E700BF91
:1007B000FFF768FE801B642873D828688003F7D58C
:1007C0000CE0FFF75FFE064605E000BFFFF75AFEAC
:1007D000801B6428F0D828688003F7D420789A4ECC
:1007E00080074FF001094FF0000839D5686810F014
:1007F0000C0F07D06868C0F38100022809D168682F
:10080000C00306D42868800714D52069012808D1C0
:1008100010E02069B0B1C6F80090FFF733FE07463C
:1008200005E00AE1FFF72EFEC01B0228C4D82868A5
:100830008007F7D52868616920F0F80040EAC10018
:1008400028600DE0C6F80080FFF71CFE074604E0B4
:10085000FFF718FEC01B022823D828688007F7D4AA
:10086000207800072CD57948A169D9B1C0F800904B
:10087000FFF708FE074604E0FFF704FEC01B02284E
:100880000FD8686A8007F7D571484FF4FA510068AD
:10089000B0FBF1F0009000BF0098411E0091FAD229
:1008A0000EE080E0C0F80080FFF7ECFD074604E0B2
:1008B000FFF7E8FDC01B022875D8686A8007F7D4E7
:1008C0002078400760D5E8690027C00008D4E869AF
:1008D00040F08050E861E869012700F08050009006
:1008E0005C480168C90513D40168834641F48071EE
:1008F0000160FFF7C7FD824606E000BFFFF7C2FDBB
:10090000A0EB0A0064284ED8DBF80000C005F5D53E
:10091000E06801280AD008B1052813D0286A20F021
:1009200001002862286A20F0040002E0286A40F0F2
:1009300001002862E06841F2883B98B1FFF7A2FD10
:1009400082460BE0286A40F004002862EEE700BF10
:10095000FFF798FDA0EB0A0159455AD8286A80078D
:10096000F6D50CE0FFF78EFD824605E0FFF78AFD25
:10097000A0EB0A0159454CD8286A8007F6D41FB16C
:10098000E86920F08050E861E06988B36968C1F3E4
:100990008101022944D00228C6F8608004D0FFF704
:1009A00071FD044638E034E0FFF76CFD074604E0D3
:1009B000FFF768FDC01B02282BD828688001F7D4F8
:1009C000206AB0F5803F05D16868A16820F4003046
:1009D00008436860D4E908010843696821F4741188
:1009E00008436860C6F86090FFF74CFD044606E0D7
:1009F00025E000BFFFF746FD001B022809D8286844
:100A00008001F7D51BE000BFFFF73CFD001B02286B
:100A100002D90320BDE8F88F28688001F4D40EE0E5
:100A20000128F7D06868226A00F48031914204D12D
:100A3000616A00F47010884201D00120EAE70020CA
:100A4000E8E70000001002400000424280044242F9
:100A5000180000200070004010B5401EB0F1807FEB
:100A600001D3012010BD4FF0E02460610F21601719
:100A700001F082F80020A06107202061002010BD55
:100A80007047704710B590F83C20012A22D001220F
:100A900080F83C20CA688C6822F4407222434C687B
:100AA00022F4806222430C6822F4006222430C6923
:100AB00022F4805222434C6922F400522243C96935
:100AC000002322F480420A4301684A6480F83C30E3
:100AD000002010BD022010BD70B590F83C20012A06
:100AE00026D0012480F83C40022280F83D20036893
:100AF0005A689D6822F070060A6832435A600D4BAE
:100B000002689A4208D0B2F1804F05D00A4B9A424F
:100B100002D00A4B9A4204D1496825F08003194358
:100B2000916080F83D40002180F83C10084670BD7F
:100B3000022070BD002C014000040040000800406D
:100B400010B5040003D094F83D0010B107E0012077
:100B500010BD002084F83C00204600F01FF8022061
:100B600084F83D00211D206800F09CFE012084F8DF
:100B7000460084F83E0084F83F0084F8400084F882
:100B8000410084F8420084F8430084F8440084F86B
:100B9000450084F83D00002010BD000000B585B080
:100BA00000210091019102910391264A0168264893
:100BB000914209D1816941F400618161806900F449
:100BC0000060049005B000BDB1F1804F13D01F4A02
:100BD0009142F7D1C16941F00201C161C0690022AF
:100BE00000F00200049001211D20FFF7B7FC1D203A
:100BF000FFF7A6FCE6E7C16941F00101C161C169E7
:100C000001F001010491816941F004018161806971
:100C1000694600F0040004904FF4004000900C4836
:100C2000FFF73AFB0B48416821F4407141F0E06165
:100C300041F480714160002201211C20FFF78EFCED
:100C40001C20D5E7002C01400010024000040040A9
:100C500000080140000001400168CA6822F001025A
:100C6000CA6001680A6A41F211131A4207D10A6A7E
:100C70009B101A4203D10A6822F001020A60012186
:100C800080F83D100020704770B5044690F83C0095
:100C90000025012817D0012684F83C60022084F842
:100CA0003D002068826822F0770222F47F42826051
:100CB0000868502838D00DDC20284FD005DC90B3D0
:100CC000102811D14AE0022070BD302846D04028BB
:100CD0000AD13BE060282FD070280DD0B0F5805F9E
:100CE00003D0B0F5005F12D0012584F83D600020EC
:100CF00084F83C00284670BDCB68D1E9012120680A
:100D000000F019FE2068816841F0770109E0CB68A6
:100D1000D1E90121206800F00EFE2068816841F4CD
:100D200080418160E1E719E0CA684968206800F005
:100D3000B7FE5021206806E0CA684968206800F0C4
:100D4000EDFE6021206800F000FECEE7CA68496829
:100D5000206800F0A5FE40212068F4E722680146E3
:100D60001046F0E72DE9F041017F012926D100214D
:100D700000F06CFB0546FFF785FB274CA060606820
:100D800060B3854204D24FF6FF71081A411900E0A2
:100D9000291A60780022012390B12078482838D29F
:100DA000B1F54D7F1BD340F28C56B14217D8401C91
:100DB0002070C0B248282CD362706260BDE8F08118
:100DC00043F2C820814224D343F2B060814220D84C
:100DD0006370227009211148FFF7F6F919E040F21B
:100DE0009476B1420FD340F6EC16B1420BD80B49C2
:100DF00000F0070701EBD001C7F107070E78BB40F1
:100E00001E430E70D3E740F6C410814201D96270D0
:100E100022706560D2E70000000000203000002052
:100E20002DE9F041054690F83C0000260C460128CB
:100E300010D0012085F83C0072B1042A1CD0082A89
:100E40002CD00C2A50D00126002085F83C003046DA
:100E5000BDE8F0810220FBE7D4E90012E3682868CE
:100E600000F030FE2868816921F00C01816128685A
:100E70008169A26811430FE0D4E90012E368286891
:100E800000F05EFE2868816921F440618161286874
:100E90008169A26841EA02218161D5E72868D4E925
:100EA000002C277B036A016A21F480710162C16909
:100EB00023F4007321F0030141EA0C0121F0F00C4E
:100EC00039074FF400774CEA116107EA02221A430E
:100ED000C16102622868C16921F00C01C161286802
:100EE000C169A26811432BE02868D4E90021E768B2
:100EF000036AD0F820C02CF4805CC0F820C0D0F881
:100F00001CC023F400532CF4407C4CEA012121F452
:100F1000704C4FF6FF7101EA07314FF4005741EA78
:100F20000C0107EA02321A43C16102622868C169F2
:100F300021F44061C1612868C169A26841EA0221C7
:100F4000C16181E710B5040003D094F83D0010B1F1
:100F500007E0012010BD002084F83C00204600F08E
:100F60001EF8022084F83D00211D206800F09AFC44
:100F7000012084F8460084F83E0084F83F0084F89D
:100F8000400084F8410084F8420084F8430084F86B
:100F9000440084F8450084F83D00002010BD7047EF
:100FA00030B50446002551B104290DD0082910D0D0
:100FB00094F8410094F84520012811D10EE094F8EE
:100FC0003E0094F84220F7E794F83F0094F843205D
:100FD000F2E794F8400094F84420EDE7012A01D0AC
:100FE000012030BD022059B1042912D0082919D09E
:100FF00084F8410084F845000C2938D0012534E0FC
:1010000084F83E0084F842002068C26842F0020280
:1010100010E084F83F0084F843002068C26842F082
:10102000040207E084F8400084F844002068C268A5
:1010300042F00802C2600122206800F06FFC0E49F5
:101040002068884208D0B0F1804F05D00B49884213
:1010500002D00B49884204D1816801F007010629BA
:1010600003D0016841F001010160284630BD2068CD
:10107000C26842F01002DDE7002C0140000400408D
:10108000000800402DE9F04104460068C668056983
:101090004FF00007A90713D5B10711D5F91E01615B
:1010A00001202077206880698007204602D0FFF762
:1010B00059FE04E000F0A4F8204600F036F9277746
:1010C000680716D5700714D521686FF00400086111
:1010D000022020772068806910F4407F204602D0EB
:1010E000FFF740FE04E000F08BF8204600F01DF909
:1010F0002777280715D5300713D521686FF008002A
:101100000861042020772068C0698007204602D04B
:10111000FFF728FE04E000F073F8204600F005F920
:101120002777E80616D5F00614D521686FF0100071
:101130000861082020772068C06910F4407F2046AD
:1011400002D0FFF70FFE04E000F05AF8204600F04E
:10115000ECF82777E80708D0F00706D021686FF091
:1011600001000861204600F067F9280608D530061E
:1011700006D521686FF0800008612046FFF780FCEB
:10118000680608D5700606D521686FF04000086132
:10119000204600F070F9A8060AD5B00608D52168E7
:1011A0006FF0200008612046BDE8F041FFF769BC00
:1011B000BDE8F08100B585B0002100910191029158
:1011C000039100680B49884212D10B48816941F0B4
:1011D000040181618069694600F0040004904FF4C5
:1011E000807000900220019003900448FFF754F8AB
:1011F00005B000BD002C0140001002400008014075
:10120000704770B5044690F83C0000260D46012852
:101210000FD0012084F83C006AB1042A1DD0082AAE
:101220002FD00C2A3FD00126002084F83C00304605
:1012300070BD022070BD206800F090FB20688169BD
:1012400041F0080181612068816921F00401816118
:10125000206881692A69114311E0206800F0A6FB2B
:101260002068816941F4006181612068816921F40D
:1012700080618161206881692A6941EA0221816176
:10128000D2E7206800F0BEFB2068C16941F0080188
:10129000C1612068C16921F00401C1612068C16990
:1012A0002A69114311E0206800F0D8FB2068C16969
:1012B00041F40061C1612068C16921F48061C161AC
:1012C0002068C1692A6941EA0221C161ACE710B511
:1012D000040003D094F83D0010B107E0012010BDD8
:1012E000002084F83C00204600F01EF8022084F81C
:1012F0003D00211D206800F0D5FA012084F8460049
:1013000084F83E0084F83F0084F8400084F84100EF
:1013100084F8420084F8430084F8440084F84500CF
:1013200084F83D00002010BD7047704710B504469A
:10133000022249B104290ED0082913D094F84100A3
:10134000012816D0012010BD94F83E000128F9D1E3
:1013500084F83E200FE094F83F000128F2D184F891
:101360003F2008E094F840000128EBD184F84020A9
:1013700001E084F841200122206800F0CFFA0F49F3
:101380002068884203D1426C42F4004242642068E3
:10139000884208D0B0F1804F05D00949884202D078
:1013A0000849884204D1816801F00701062903D069
:1013B000016841F001010160002010BD002C0140D6
:1013C000000400400008004030B504460D460068A7
:1013D000002200F0A3FA174B41F2111120688A1085
:1013E000984209D1036A0B4206D1036A134203D122
:1013F000436C23F4004343642068036A0B4206D124
:10140000016A114203D1016821F00101016001204C
:101410003DB1042D08D0082D09D084F841000020EA
:1014200030BD84F83E00FAE784F83F00F7E784F81F
:101430004000F4E7002C0140034A0168914201D1C9
:1014400000F058B870470000000400400246002039
:1014500041B1042909D008290AD00C2901D110680A
:10146000006C70471068406B70471068806B704765
:101470001068C06B70477047FEE7000010B5074C5E
:101480006078002809D0FEF7FDFFA168401A6428A3
:1014900003D9002060702070606010BD0000002043
:1014A00010B500210848FFF77BFD00224FF4807142
:1014B0000648FEF7E1FF0648002101704173FEF780
:1014C000E1FF0449886010BD84000020000801404D
:1014D0001C00002000000020054900220B685A6211
:1014E0000A68D062C86009686FF00100086170473F
:1014F000CC0000202DE9F047074600683F498842AC
:1015000079D16FF0010101613D4C0025DFF8F4A0B5
:1015100020784FF003084FF480794FF40C760628BA
:101520005CD2DFE800F05B0311182F480021364839
:10153000FFF74AFF002249465046FEF79DFF022072
:10154000207041F2941032E000212F48FFF7EEFEA8
:1015500084F800802AE02A48A17A401C085CE17ADD
:10156000C84000F0010500212748FFF72DFF0022A9
:1015700049465046FEF780FF04202070B5B14FF475
:10158000D26613E0E07A10B1401EE07204E007205A
:10159000E072A07A401CA072A07A217B8842D3D34B
:1015A00000211948FFF7C2FE052020703046BDE833
:1015B000F047FFF791BF00211348FFF705FF002216
:1015C00049465046FEF758FF25706573FEF75AFFEF
:1015D00020613846BDE8F047FFF73EBB00210A48CE
:1015E000FFF7F2FE002249465046FEF745FF6573BD
:1015F0002570EEE7FFE7BDE8F0870000000400403B
:101600001C000020000801403C000020104808B5E4
:10161000816941F020018161816901F0200100911F
:10162000816941F004018161816901F00401009147
:10163000816941F001018161806900F00100009041
:101640000448416821F0E06141F00071416008BD4B
:10165000001002400000014010B596B000240F9425
:1016600010941194129413941C2108A81494FEF75A
:10167000ABFD20216846FEF7A7FD29482749C0E9B0
:10168000001440F26671C0E9024180210461C0E9A2
:101690000541FFF755FA08B1FEF7FBFD4FF4805006
:1016A0000F900FA91E48FFF7EFFA08B1FEF7F1FD02
:1016B0001B48FFF70CFE08B1FEF7EBFD139413A9CE
:1016C00017481494FFF708FA08B1FEF7E2FD60200E
:1016D000089040F2B330CDE909040B940C940D94BA
:1016E000002208A90E480E94FFF78BFD08B1FEF703
:1016F000D0FD00944FF40050CDE9044002940194D1
:101700000394694606480794FFF7BCF908B1FEF751
:10171000C0FD0348FFF74EFD16B010BD002C014080
:101720003C00002010B58AB000242248049405949F
:1017300006940794089409940094019402944FF03D
:101740008041039401604721C0E901144FF6FF7105
:10175000C0E903148461FFF7F3F908B1FEF799FDBE
:101760004FF48050049004A91248FFF78DFA08B195
:10177000FEF78FFD0F48FFF7E5FB08B1FEF789FD87
:10178000089408A90B480994FFF7A6F908B1FEF7D9
:1017900080FD0120CDE90040029400226946054801
:1017A0000394FFF73DFB002801D0FEF772FD0AB05D
:1017B00010BD00008400002010B586B0002417483A
:1017C00000940194029403940494134905940160D5
:1017D0004721C0E901144FF47A71C0E90314802154
:1017E0008161FFF7ADF908B1FEF753FD4FF480506A
:1017F000009069460948FFF747FA08B1FEF749FD2E
:10180000049404A905480594FFF766F9002801D05F
:10181000FEF73FFD06B010BD00040040CC000020E4
:10182000FEE7FEE770477047FEF732BE30B58FB077
:1018300028216846FEF7C8FC14210AA8FEF7C4FC5C
:1018400001210804CDE9001000240294022504912E
:10185000CDE907504FF4E01009906846FEF76CFFA1
:1018600008B172B6FEE70F20CDE90A054FF480609B
:10187000CDE90C4002210AA80E94FEF7A1FE002833
:1018800001D072B6FEE70FB030BD70470148FFF7D8
:10189000F9BB0000840000200148FFF7F3BB000003
:1018A000CC000020F0B50268194B1A4C1A4D4FF0CD
:1018B0008047984205D0B84203D0A04201D0A84248
:1018C00003D122F070064A683243984205D0B842EC
:1018D00003D0A04201D0A84203D122F44074CA68C8
:1018E00022434C6922F08002224302608A68C2626D
:1018F0000A688262984201D109690163012141614C
:101900000169C90703D0016921F001010161F0BD3E
:10191000002C0140000400400008004010B501F018
:101920001F030121046A99408C430462016A9A40B2
:101930001143016210BD10B5846842EA032224F409
:101940007F440A432243826010BD826822F0700205
:101950000A4342F0070181607047000030B5036A16
:10196000026A22F0010202624268846924F073056F
:101970000C682C4323F002058B682B430A4DA842C8
:101980000BD123F00805CB6822F440722B434D693C
:1019900023F0040315438A692A434260846149683D
:1019A0004163036230BD0000002C014030B5026A83
:1019B000036A23F010030362436884690D6824F40A
:1019C000E64444EA05248D6822F0200242EA05122A
:1019D0000B4DA8420ED1CD6822F0800242EA0512DA
:1019E0004D6923F4406343EA85038D6922F0400288
:1019F00043EA85034360846149688163026230BDC4
:101A0000002C014030B5036A026A22F4807202623F
:101A10004268C46923F4007324F073050C682C43F6
:101A20008D6843EA05230C4DA8420ED1CD6823F4FE
:101A3000006343EA05234D6922F4405242EA05124D
:101A40008D6923F4806342EA05124260C4614968EB
:101A5000C163036230BD0000002C014030B5046A50
:101A6000026A22F4805202624268C3690D6823F45C
:101A7000E64343EA05238D6824F4005444EA053420
:101A8000064DA84204D14D6922F4804242EA8512F3
:101A90004260C36149680164046230BD002C0140AA
:101AA00010B5036A046A24F001040462846924F016
:101AB000F00444EA021423F00A020A438461026239
:101AC00010BD000070B5056A046A24F001040462C8
:101AD00084690F4EB04208D0B0F1804F05D00D4E52
:101AE000B04202D00C4EB04203D124F003041443A0
:101AF00001E044F001041A0724F0F00444EA126201
:101B000025F00A0301F00A0119438261016270BDE8
:101B1000002C0140000400400008004010B5036A9A
:101B2000046A24F010040462846923F0A00324F4FE
:101B3000704444EA023243EA01118261016210BD3D
:101B400030B5046A056A25F010050562856925F43B
:101B5000407545EA022222F470454FF6FF7202EA10
:101B6000033224F0A0032A43A02404EA01111943FC
:101B70008261016230BDFEE70907090E002804DB1F
:101B800000F1E02080F80014704700F00F0000F131
:101B9000E02080F8141D7047FEF782FCFFF746FE38
:101BA000FFF734FDFFF7BEFDFFF706FEFFF754FD1C
:101BB000FFF776FCFFF762FCFCE701020203040575
:101BC000060708090A0B0C0D0E0F1010000000008C
:101BD000000000000102030406070809FC1B0008BE
:101BE000000000201C00000028010008181C00084C
:101BF0001C0000205C0700004401000800000000F9
:101C000000000000000000000100000010000000C3
:081C10000000000000127A0040
:04000005080000ED02
:00000001FF
