:020000040800F2
:10000000B00700208901000833220008791D00088C
:10001000312200087F030008872500080000000047
:10002000000000000000000000000000372200086F
:10003000DD03000800000000352200083922000816
:10004000A3010008A3010008A3010008A301000800
:10005000A3010008A3010008A3010008A3010008F0
:10006000A3010008A3010008A3010008A3010008E0
:10007000A3010008A3010008A3010008A3010008D0
:10008000A3010008A3010008A3010008A3010008C0
:10009000A3010008810300088D030008A3010008E4
:1000A000A3010008A3010008A3010008A3010008A0
:1000B0009D220008A9220008A3010008A30100084E
:1000C000A3010008A3010008A3010008A301000880
:1000D000A3010008A3010008A3010008A301000870
:1000E000A3010008A3010008A301000800F002F822
:1000F00000F03AF80AA090E8000C82448344AAF188
:100100000107DA4501D100F02FF8AFF2090EBAE885
:100110000F0013F0010F18BFFB1A43F0010318473B
:100120002425000044250000103A24BF78C878C177
:10013000FAD8520724BF30C830C144BF04680C60ED
:10014000704700000023002400250026103A28BF35
:1001500078C1FBD8520728BF30C148BF0B60704739
:100160001FB51FBD10B510BD00F0CFF81146FFF749
:10017000F7FF02F019FA00F0EDF803B4FFF7F2FF11
:1001800003BC00F0F5F80000094880470948004723
:10019000FEE7FEE7FEE7FEE7FEE7FEE7FEE7FEE737
:1001A000FEE7FEE704480549054A064B7047000094
:1001B0009B220008ED000008B0010020B0070020DD
:1001C000B0030020B0030020032A40F2308010F07A
:1001D000030C00F0158011F8013BBCF1020F6244E2
:1001E00098BF11F801CB00F8013B38BF11F8013B73
:1001F000A2F1040298BF00F801CB38BF00F8013B20
:1002000011F0030300F04F80083AC0F0088051F865
:10021000043B083A51F804CBA0E80810F5E7121D9A
:100220005CBF51F8043B40F8043BAFF30080D207B9
:1002300024BF11F8013B11F801CB48BF11F8012B85
:1002400024BF00F8013B00F801CB48BF00F8012BA8
:1002500070474FF0000200B5134694469646203989
:1002600022BFA0E80C50A0E80C50B1F12001BFF46F
:10027000F7AF090728BFA0E80C5048BF0CC05DF8D5
:1002800004EB890028BF40F8042B08BF704748BF23
:1002900020F8022B11F0804F18BF00F8012B704797
:1002A00070477047704710B5203AC0F00B80B1E836
:1002B0001850203AA0E81850B1E81850A0E818509B
:1002C000BFF4F5AF5FEA027C24BFB1E81850A0E8A4
:1002D000185044BF18C918C0BDE810405FEA827CBE
:1002E00024BF51F8043B40F8043B08BF7047D207D5
:1002F00028BF31F8023B48BF11F8012B28BF20F876
:10030000023B48BF00F8012B7047754600F02CF8FF
:10031000AE4605006946534620F00700854618B0F2
:1003200020B5FFF73FFFBDE820404FF000064FF03B
:1003300000074FF000084FF0000B21F00701AC461A
:10034000ACE8C009ACE8C009ACE8C009ACE8C00939
:100350008D46704710B50446AFF300802046BDE8D7
:100360001040FFF70ABF0000004870474C01002012
:1003700001491820ABBEFEE7260002007047FEE7E9
:10038000014800F0B1B900004C000020014800F025
:10039000ABB900004C00002070B588B015460C4683
:1003A0000646082913D80C4800F088F900280FD019
:1003B0000022CDE900520292CDE903248DF81420E9
:1003C00006AB32466946044800F01DF810B1002023
:1003D00008B070BD0120FBE74C000020704772B6EA
:1003E000FEE790F82020012A07D0022A05D0416AB2
:1003F00041F48021416201207047006842690A434C
:10040000426100207047F0B590F820500468A4685D
:10041000012D05D0022D03D0416A41F4802157E01F
:1004200014F0406F01D1E5004FD5C4F301640125FC
:10043000A5401D608D684FF4C0739DB1CE683543F3
:100440004E6845EAC605066803EB0417F5514FF4FC
:10045000C275076805EB04150E697E51097D0129F7
:1004600005D009E00E88CD6845EA4655EBE70168FE
:100470004E5946F480764E511179D579567941EA34
:10048000056195792D0445EA062529434FF4C67682
:10049000056806EB0416A9511178D57841EA056183
:1004A000957852782D0445EA022211434FF4C47521
:1004B000026805EB04155151006803EB0411425822
:1004C00042F0010242500020F0BD416A41F40011A7
:1004D00041620120F0BD000010B590F820300268A4
:1004E000012B07D0022B05D0416A41F480214162E3
:1004F000012010BDD2F8000240F00100C2F8000255
:10050000087D00F01F0301209840D2F81C3283437D
:10051000C2F81C32CB69B3B9D2F80C328343C2F8AB
:100520000C328C894B6864F31F434C6902EBC404A2
:10053000C4F840320C890B6864F31F434C6902EB2A
:10054000C404C4F84432CB69012B16D1D2F80C3262
:100550000343C2F80C320C884B6864F31F434C69A8
:1005600002EBC404C4F840320C89CB6864F31F4327
:100570004C6902EBC404C4F844328B69002BD2F8F6
:1005800004320FD053EA0003C2F804320B69002B87
:10059000D2F8143208D00343C2F81432096A012990
:1005A00004D008E08343EFE78343F5E7D2F81C1259
:1005B0000143C2F81C12D2F8000220F00100C2F878
:1005C0000002002010BD704770B590F82040012C4B
:1005D00005D0022C03D0416A41F4802128E0046850
:1005E00009B32469A40720D04FF4D874056804EB3C
:1005F00001142D5915F00405956005682D591AD080
:10060000ED08556005682C5904F00204D4604FF4DD
:10061000DA74056804EB01142E5906F00F06082E53
:100620000CD308250DE0E468DCE7416A41F40011D1
:100630004162012070BD6D0D1560E3E72D5905F095
:100640000F05156105682D59C5F3072595610568E6
:100650002C59240C54614FF4DC72046802EB011233
:10066000A4581C700468A458240A5C700468A45838
:10067000240C9C700468A258120EDA704FF4DE72DB
:10068000046802EB0112A4581C710468A458240ADF
:100690005C710468A458240C9C710468A258120E62
:1006A000DA71006829B1016941F02001016100207F
:1006B00070BDC16841F02001C160F8E7024600202A
:1006C00092F82010012901D002290CD111688A6802
:1006D000520100D501208A68120100D5401C8968AA
:1006E000C90000D5401C70472DE9F05F0546006841
:1006F00000244669D0F804908768D0F80CB0D0F890
:1007000010A0D0F81880F10748D0F90714D00121C3
:100710008160B80703D5284600F007FA0CE0780797
:1007200002D54FF4006407E0380702D54FF4805437
:1007300002E0284600F0F8F9F80516D529684FF4CC
:1007400080708860B80503D5284600F0F0F90CE009
:10075000780502D544F4005407E0380502D544F486
:10076000804402E0284600F0E1F9F80316D5296834
:100770004FF480308860B80303D5284600F0D9F9DB
:100780000CE0780302D544F4004407E0380302D5B6
:1007900044F4803402E0284600F0CAF9300707D557
:1007A0005FEACB6004D52968102044F40074C86067
:1007B00070074FF0080707D55FEA0B7004D528686B
:1007C000C760284600F062F9B00706D52868C068FF
:1007D000800702D0284600F05BF9700607D55FEA73
:1007E000CA6004D52968102044F480640861B0060A
:1007F00007D55FEA0A7004D528680761284600F02B
:1008000063F9F00606D528680069800702D02846FB
:1008100000F05BF9B00308D55FEAC96005D5296827
:1008200010204860284600F051F9F00307D55FEA30
:10083000097004D528684760284600F07BF9300429
:1008400046D55FEA497040D5F00504D55FEAC87027
:1008500001D044F00104B00504D55FEA887001D5E9
:1008600044F00204700504D55FEA487001D544F0F5
:100870000404300529D518F0700F26D008F0700058
:10088000402815D006DC102809D020280AD03028AE
:1008900016D10AE050280ED0602811D10EE044F0A5
:1008A00008040DE044F010040AE044F0200407E0DE
:1008B00044F0400404E044F0800401E044F4807417
:1008C0002868816921F070018161296804204860ED
:1008D000002C05D0686A204368622846FFF773FE43
:1008E000BDE8F09F70B5040003D094F8200010B16B
:1008F00004E0012070BD204600F082F82068016805
:1009000041F00101016000F00DFA0546052604E002
:1009100000F008FA401B0A2811D820684068C00778
:10092000F6D02068016821F00201016000F0FAF9B8
:1009300005460BE000F0F6F9401B0A2806D9606A6C
:1009400040F40030606284F82060D2E7206840689C
:100950008007EFD4207E0128206801683DD021F077
:1009600080010160607E01282068016838D021F094
:1009700040010160A07E01282068016833D021F089
:1009800020010160E07E0128206801682ED041F03E
:1009900010010160207F01282068016829D021F022
:1009A00008010160607F01282068016824D021F0DF
:1009B00004010160D4E902010843D4E9041211439F
:1009C00008436168491E08432168C86100206062CD
:1009D000012084F82000002070BD41F08001C0E7B4
:1009E00041F04001C5E741F02001CAE721F01001C4
:1009F000CFE741F00801D4E741F00401D9E7000056
:100A000010B586B000210091019102910391006818
:100A10001B49884232D11B48C16941F00071C16154
:100A2000C16901F000710491816941F004018161A3
:100A30008069154C00F0040004904FF400600090B1
:100A40006946204600F078F8A0140090022001903A
:100A5000032003906946204600F06EF80022022130
:100A6000152000F0CBF9152000F0BAF9002203217F
:100A7000162000F0C3F9162000F0B2F906B010BD40
:100A80000064004000100240000801407047000070
:100A900000B589B06B4602AA0021FFF795FD00283A
:100AA0000ED1049800280BD10698082808D10548D3
:100AB000DDE900128160C26002994160012101708C
:100AC00009B000BD0C00002070477047704700005F
:100AD00070B5044690F82000012804D0606A40F404
:100AE0000020606218E0022084F82000206801687D
:100AF00021F00101016000F015F905460EE000BF8C
:100B000000F010F9401B0A2808D9606A40F4003050
:100B10006062052084F82000012070BD20684068D4
:100B2000C007EDD1606270BD704770477047704775
:100B300070477047704700002DE9F84FDFF8B89113
:100B40000024A9F1040B23460F2709F1040AABF195
:100B5000040EC9E00125A5402A40AA427DD1674E76
:100B6000D1F804C0ACEB0608B44532D014DCBCF1BB
:100B7000030F3AD009DCBCF1000F2AD0BCF1010F01
:100B80001CD0BCF1020F31D11DE0BCF1110F17D008
:100B9000BCF1120F2AD119E0B8F5881F19D006DC74
:100BA000B8F5803F15D0B8F5801F1FD111E0B8F51A
:100BB000001F0ED0B8F5041F18D10AE0CB6815E06D
:100BC000CB681B1D12E0CB6808330FE0CB680C33F9
:100BD0000CE08B682BB1012B4FF0080303D045616B
:100BE00004E0042302E0056100E00023FF2A01D8AD
:100BF000064601E000F104064FEA840501D9A5F19B
:100C00002005D6F8008007FA05FC28EA0C0803FA4C
:100C100005F548EA0508C6F800804D68ED0062D584
:100C2000374DAE6946F00106AE61AD6924F00306AA
:100C300005F001050095334D06EB050CDCF8085076
:100C4000A607360F07FA06F825EA0805DFF8B88088
:100C5000404503D14FF0000817E044E0DFF8AC80D6
:100C6000404502D14FF001080FE0DFF8A480404575
:100C700002D14FF0020808E0DFF89880404502D129
:100C80004FF0030801E04FF0040808FA06F848EABC
:100C90000508CCF808804D68D9F80060ED024D4693
:100CA00001D5164300E096432E604D68DAF80060E7
:100CB000AD02554601D5164300E096432E604D68BF
:100CC000DBF80060AD035D4601D5164300E09643B6
:100CD0002E604D68DEF80060ED03754601D51643C1
:100CE00000E096432E60641C0D682A46E5407FF4C0
:100CF00031AFBDE8F88F000008040140000011107A
:100D0000001002400000014000080140000C0140BA
:100D100000100140001401400AB10161704709044C
:100D2000FBE7000001488068704700001C000020BD
:100D30000248816802781144816070471C000020DD
:100D4000074810B5016841F010010160032000F070
:100D500075F80F2000F006F800F024F8002010BD10
:100D60000020024070B50D4D04464FF47A7128788A
:100D7000B1FBF0F00A490968B1FBF0F000F0BCFAF1
:100D800048B9102C07D200222146501E00F036F838
:100D900000206C6070BD012070BD00001C000020B0
:100DA000280000200C4808B5816941F001018161EB
:100DB000816901F001010091C16941F08051C16177
:100DC000C06900F0805000900448416821F0E06163
:100DD00041F00071416008BD001002400000014078
:100DE000002809DB00F01F0201219140400980002A
:100DF00000F1E020C0F8001170470000F0B40E4B85
:100E00001B680C46C3F30223C3F10705042D00D968
:100E10000425191D072901D2002300E0DB1E01264D
:100E200006FA05F1491E214099409E40761E164063
:100E30003143F0BC01F0A8BB0CED00E0064900F026
:100E4000070208684FF6FF03184040EA0220034AF1
:100E500010430860704700000CED00E00000FA0548
:100E60002DE9F0470F46050061D0434E306800F091
:100E70000700B84209D2306820F0070038433060DC
:100E8000306800F00700B84251D128683B4C810718
:100E900012D5400703D5606840F4E06060602878B0
:100EA000000703D5606840F4605060606068A9681E
:100EB00020F0F000084360602878C00728D06868F8
:100EC000012810D02168022810D0890700292EDAC5
:100ED000616821F0030101436160FFF723FF804651
:100EE00041F288390DE021688903EFE78901EDE7D8
:100EF000FFF718FFA0EB0801494502D90320BDE820
:100F0000F0876068696800F00C00B0EB810FEFD1EA
:100F1000306800F00700B8420BD9306820F00700B5
:100F200038433060306800F00700B84201D001203B
:100F3000E5E72878400705D56068E96820F4E060B7
:100F4000084360602878000706D56068296920F4A6
:100F5000605040EAC100606000F018F86168084A1B
:100F6000C1F30311515CC840064908600648006897
:100F7000FFF7F8FE0020C2E7002002400010024008
:100F80003226000828000020200000200E4A516868
:100F90000E4801F00C03042B11D0082B0FD10C4884
:100FA000C1F38343C903C05C0AD55168084AC1F341
:100FB0004041921E515C054A5043B0FBF1F070472E
:100FC00004494843704700000010024000127A00B4
:100FD0002226000800093D002DE9F84F040070D0DA
:100FE0002078C04DC00749D06868C0F3810001284F
:100FF00007D06868C0F38100022809D16868C0037F
:1010000006D52868800339D560680028E7D035E028
:101010006068B0F5803F0BD010B1B0F5A02F11D0B3
:10102000286820F480302860286820F4802002E0BE
:10103000286840F480302860606890B1FFF772FE45
:1010400006460AE0286840F480202860F0E700BFE8
:10105000FFF768FE801B642873D828688003F7D5E3
:101060000CE0FFF75FFE064605E000BFFFF75AFE03
:10107000801B6428F0D828688003F7D420789A4E23
:1010800080074FF001094FF0000839D5686810F06B
:101090000C0F07D06868C0F38100022809D1686886
:1010A000C00306D42868800714D52069012808D118
:1010B00010E02069B0B1C6F80090FFF733FE074694
:1010C00005E00AE1FFF72EFEC01B0228C4D82868FD
:1010D0008007F7D52868616920F0F80040EAC10070
:1010E00028600DE0C6F80080FFF71CFE074604E00C
:1010F000FFF718FEC01B022823D828688007F7D402
:10110000207800072CD57948A169D9B1C0F80090A2
:10111000FFF708FE074604E0FFF704FEC01B0228A5
:101120000FD8686A8007F7D571484FF4FA51006804
:10113000B0FBF1F0009000BF0098411E0091FAD280
:101140000EE080E0C0F80080FFF7ECFD074604E009
:10115000FFF7E8FDC01B022875D8686A8007F7D43E
:101160002078400760D5E8690027C00008D4E86906
:1011700040F08050E861E869012700F0805000905D
:101180005C480168C90513D40168834641F4807145
:101190000160FFF7C7FD824606E000BFFFF7C2FD12
:1011A000A0EB0A0064284ED8DBF80000C005F5D596
:1011B000E06801280AD008B1052813D0286A20F079
:1011C00001002862286A20F0040002E0286A40F04A
:1011D00001002862E06841F2883B98B1FFF7A2FD68
:1011E00082460BE0286A40F004002862EEE700BF68
:1011F000FFF798FDA0EB0A0159455AD8286A8007E5
:10120000F6D50CE0FFF78EFD824605E0FFF78AFD7C
:10121000A0EB0A0159454CD8286A8007F6D41FB1C3
:10122000E86920F08050E861E06988B36968C1F33B
:101230008101022944D00228C6F8608004D0FFF75B
:1012400071FD044638E034E0FFF76CFD074604E02A
:10125000FFF768FDC01B02282BD828688001F7D44F
:10126000206AB0F5803F05D16868A16820F400309D
:1012700008436860D4E908010843696821F47411DF
:1012800008436860C6F86090FFF74CFD044606E02E
:1012900025E000BFFFF746FD001B022809D828689B
:1012A0008001F7D51BE000BFFFF73CFD001B0228C3
:1012B00002D90320BDE8F88F28688001F4D40EE03D
:1012C0000128F7D06868226A00F48031914204D185
:1012D000616A00F47010884201D00120EAE7002022
:1012E000E8E7000000100240000042428004424251
:1012F000280000200070004010B5401EB0F1807F33
:1013000001D3012010BD4FF0E02460610F21601770
:1013100001F03AF90020A06107202061002010BDF3
:101320007047704710B590F83C20012A22D0012266
:1013300080F83C20CA688C6822F4407222434C68D2
:1013400022F4806222430C6822F4006222430C697A
:1013500022F4805222434C6922F400522243C9698C
:10136000002322F480420A4301684A6480F83C303A
:10137000002010BD022010BD70B590F83C20012A5D
:1013800026D0012480F83C40022280F83D200368EA
:101390005A689D6822F070060A6832435A600D4B05
:1013A00002689A4208D0B2F1804F05D00A4B9A42A7
:1013B00002D00A4B9A4204D1496825F080031943B0
:1013C000916080F83D40002180F83C10084670BDD7
:1013D000022070BD002C01400004004000080040C5
:1013E00010B5040003D094F83D0010B107E00120CF
:1013F00010BD002084F83C00204600F01FF80220B9
:1014000084F83D00211D206800F054FF012084F87D
:10141000460084F83E0084F83F0084F8400084F8D9
:10142000410084F8420084F8430084F8440084F8C2
:10143000450084F83D00002010BD000000B585B0D7
:1014400000210091019102910391274A01682748E8
:10145000914209D1816941F400618161806900F4A0
:101460000060049005B000BDB1F1804F13D0204A58
:101470009142F7D1C16941F00201C161C069002206
:1014800000F00200049001211D20FFF7B7FC1D2091
:10149000FFF7A6FCE6E7C16941F00101C161C1693E
:1014A00001F001010491816941F0040181618069C9
:1014B000694600F0040004904FF4004000900120C1
:1014C00002900C48FFF738FB0B48416821F440714B
:1014D00041F0E06141F480714160002201211C2053
:1014E000FFF78CFC1C20D3E7002C014000100240C9
:1014F00000040040000801400000014090F83D1049
:10150000012901D001207047022180F83D100168B7
:10151000CA6842F00102CA6000680B49884208D0DC
:10152000B0F1804F05D00949884202D0084988426D
:1015300004D1816801F00701062903D0016841F058
:101540000101016000207047002C014000040040B0
:10155000000800400168CA6822F00102CA60016800
:101560000A6A41F211131A4207D10A6A9B101A4201
:1015700003D10A6822F001020A60012180F83D10BF
:101580000020704770B5044690F83C000025012803
:1015900017D0012684F83C60022084F83D002068C2
:1015A000826822F0770222F47F4282600868502825
:1015B00038D00DDC20284FD005DC90B3102811D195
:1015C0004AE0022070BD302846D040280AD13BE0D6
:1015D00060282FD070280DD0B0F5805F03D0B0F513
:1015E000005F12D0012584F83D60002084F83C00A3
:1015F000284670BDCB68D1E90121206800F0A3FE28
:101600002068816841F0770109E0CB68D1E90121C8
:10161000206800F098FE2068816841F48041816074
:10162000E1E719E0CA684968206800F041FF5021ED
:10163000206806E0CA684968206800F077FF6021EA
:10164000206800F08AFECEE7CA684968206800F08A
:101650002FFF40212068F4E7226801461046F0E79A
:101660002DE9F041017F012927D1002100F06EFB17
:101670000546FFF757FB284CA060606868B38542B9
:1016800004D24FF6FF71081A411900E0291A607858
:101690000022012398B1207848283AD2B1F54D7F35
:1016A0001CD340F28C56B14218D8401C2070C0B2F6
:1016B00048282ED36270A3706260BDE8F08143F2C7
:1016C000C820814225D343F2B060814221D86370A3
:1016D000227009211148FEF7BCFD1AE040F2947611
:1016E000B14210D340F6EC16B1420CD80B4900F0D1
:1016F000070701EBD006C7F10707317803FA07F7B0
:1017000039433170D1E740F6C410814201D962708B
:1017100022706560D1E7000000000020400000203A
:101720002DE9F041054690F83C0000260C460128C2
:1017300010D0012085F83C0072B1042A1CD0082A80
:101740002CD00C2A50D00126002085F83C003046D1
:10175000BDE8F0810220FBE7D4E90012E3682868C5
:1017600000F0B8FE2868816921F00C0181612868C9
:101770008169A26811430FE0D4E90012E368286888
:1017800000F0E6FE2868816921F4406181612868E3
:101790008169A26841EA02218161D5E72868D4E91C
:1017A000002C277B036A016A21F480710162C16900
:1017B00023F4007321F0030141EA0C0121F0F00C45
:1017C00039074FF400774CEA116107EA02221A4305
:1017D000C16102622868C16921F00C01C1612868F9
:1017E000C169A26811432BE02868D4E90021E768A9
:1017F000036AD0F820C02CF4805CC0F820C0D0F878
:101800001CC023F400532CF4407C4CEA012121F449
:10181000704C4FF6FF7101EA07314FF4005741EA6F
:101820000C0107EA02321A43C16102622868C169E9
:1018300021F44061C1612868C169A26841EA0221BE
:10184000C16181E710B5040003D094F83D0010B1E8
:1018500007E0012010BD002084F83C00204600F085
:101860001EF8022084F83D00211D206800F022FDB2
:10187000012084F8460084F83E0084F83F0084F894
:10188000400084F8410084F8420084F8430084F862
:10189000440084F8450084F83D00002010BD7047E6
:1018A00030B50446002551B104290DD0082910D0C7
:1018B00094F8410094F84520012811D10EE094F8E5
:1018C0003E0094F84220F7E794F83F0094F8432054
:1018D000F2E794F8400094F84420EDE7012A01D0A3
:1018E000012030BD022059B1042912D0082919D095
:1018F00084F8410084F845000C2938D0012534E0F3
:1019000084F83E0084F842002068C26842F0020277
:1019100010E084F83F0084F843002068C26842F079
:10192000040207E084F8400084F844002068C2689C
:1019300042F00802C2600122206800F0F7FC0E4964
:101940002068884208D0B0F1804F05D00B4988420A
:1019500002D00B49884204D1816801F007010629B1
:1019600003D0016841F001010160284630BD2068C4
:10197000C26842F01002DDE7002C01400004004084
:10198000000800402DE9F04104460068C66805697A
:101990004FF00007A90713D5B10711D5F91E016152
:1019A00001202077206880698007204602D0FFF759
:1019B00057FE04E000F0A4F8204600F036F927773F
:1019C000680716D5700714D521686FF00400086108
:1019D000022020772068806910F4407F204602D0E2
:1019E000FFF73EFE04E000F08BF8204600F01DF902
:1019F0002777280715D5300713D521686FF0080021
:101A00000861042020772068C0698007204602D042
:101A1000FFF726FE04E000F073F8204600F005F919
:101A20002777E80616D5F00614D521686FF0100068
:101A30000861082020772068C06910F4407F2046A4
:101A400002D0FFF70DFE04E000F05AF8204600F047
:101A5000ECF82777E80708D0F00706D021686FF088
:101A600001000861204600F067F9280608D5300615
:101A700006D521686FF0800008612046FFF750FC12
:101A8000680608D5700606D521686FF04000086129
:101A9000204600F070F9A8060AD5B00608D52168DE
:101AA0006FF0200008612046BDE8F041FFF739BC27
:101AB000BDE8F08100B585B000210091019102914F
:101AC000039100680B49884212D10B48816941F0AB
:101AD000040181618069694600F0040004904FF4BC
:101AE000807000900220019003900448FFF724F8D2
:101AF00005B000BD002C014000100240000801406C
:101B0000704770B5044690F83C0000260D46012849
:101B10000FD0012084F83C006AB1042A1DD0082AA5
:101B20002FD00C2A3FD00126002084F83C003046FC
:101B300070BD022070BD206800F018FC206881692B
:101B400041F0080181612068816921F0040181610F
:101B5000206881692A69114311E0206800F02EFC99
:101B60002068816941F4006181612068816921F404
:101B700080618161206881692A6941EA022181616D
:101B8000D2E7206800F046FC2068C16941F00801F6
:101B9000C1612068C16921F00401C1612068C16987
:101BA0002A69114311E0206800F060FC2068C169D7
:101BB00041F40061C1612068C16921F48061C161A3
:101BC0002068C1692A6941EA0221C161ACE710B508
:101BD000040003D094F83D0010B107E0012010BDCF
:101BE000002084F83C00204600F01EF8022084F813
:101BF0003D00211D206800F05DFB012084F84600B7
:101C000084F83E0084F83F0084F8400084F84100E6
:101C100084F8420084F8430084F8440084F84500C6
:101C200084F83D00002010BD7047704710B5044691
:101C3000022249B104290ED0082913D094F841009A
:101C4000012816D0012010BD94F83E000128F9D1DA
:101C500084F83E200FE094F83F000128F2D184F888
:101C60003F2008E094F840000128EBD184F84020A0
:101C700001E084F841200122206800F057FB0F4961
:101C80002068884203D1426C42F4004242642068DA
:101C9000884208D0B0F1804F05D00949884202D06F
:101CA0000849884204D1816801F00701062903D060
:101CB000016841F001010160002010BD002C0140CD
:101CC000000400400008004030B504460D4600689E
:101CD000002200F02BFB174B41F2111120688A10F3
:101CE000984209D1036A0B4206D1036A134203D119
:101CF000436C23F4004343642068036A0B4206D11B
:101D0000016A114203D1016821F001010160012043
:101D10003DB1042D08D0082D09D084F841000020E1
:101D200030BD84F83E00FAE784F83F00F7E784F816
:101D30004000F4E7002C0140034A0168914201D1C0
:101D400000F0B8B8704700000004004002460020D0
:101D500041B1042909D008290AD00C2901D1106801
:101D6000006C70471068406B70471068806B70475C
:101D70001068C06B70477047FEE770B50446FF20DF
:101D8000002207250FE0A35C58400023060602D579
:101D900085EA400000E040005B1CDBB2C0B2082BCB
:101DA000F4D3521CD2B28A42EDD370BD10B5074CA9
:101DB0006078002809D0FEF7B5FFA168401A6428B2
:101DC00003D9002060702070606010BD000000200A
:101DD00010B500210848FFF763FD00224FF4807121
:101DE0000648FEF799FF0648002101704173FEF78F
:101DF00099FF0449886010BDBC0000200008014024
:101E00002C000020000000200148407B70470000AB
:101E10002C0000202DE9F0410D460746082908D87E
:101E2000194C607B28B9FEF77DFF2169401A3228E2
:101E300002D20020BDE8F08129463846FFF79DFF19
:101E400006462A463946601CFEF7BEF960196D1C2D
:101E5000467025730020A0720720E0720120607395
:101E6000207000210948FFF7E1FE42F2283000F01F
:101E700013F80748FFF742FB012211020548FEF75D
:101E80004BFF0120D6E700002C000020740000204A
:101E90000401002000080140054900220B685A6235
:101EA0000A68D062C86009686FF001000861704775
:101EB000040100202DE9F047074600683F498842A9
:101EC00079D16FF0010101613D4C0025DFF8F4A0EC
:101ED00020784FF003084FF480794FF40C760628F1
:101EE0005CD2DFE800F05B0311182F480021364870
:101EF000FFF7EAFE002249465046FEF70DFF02209A
:101F0000207041F2941032E000212F48FFF78EFE3E
:101F100084F800802AE02A48A17A401C085CE17A13
:101F2000C84000F0010500212748FFF7CDFE002240
:101F300049465046FEF7F0FE04202070B5B14FF43C
:101F4000D26613E0E07A10B1401EE07204E0072090
:101F5000E072A07A401CA072A07A217B8842D3D381
:101F600000211948FFF762FE052020703046BDE8C9
:101F7000F047FFF791BF00211348FFF7A5FE0022AD
:101F800049465046FEF7C8FE25706573FEF7CAFE47
:101F900020613846BDE8F047FFF7DCBA00210A4867
:101FA000FFF792FE002249465046FEF7B5FE6573E4
:101FB0002570EEE7FFE7BDE8F08700000004004071
:101FC0002C000020000801407400002010B51A48C1
:101FD0008AB01849016003210024C0E901144FF4BC
:101FE000E021C0E903414FF40011416104764476D9
:101FF0008476C47604774477FEF774FC08B1FEF764
:10200000EEF90120CDE906400394089004940E20D7
:102010000594099000940194029469460648FEF7DD
:102020005BFA0548FEF754FD02210348FEF7D9F993
:102030000AB010BD006400404C000020094808B5FB
:10204000816941F020018161816901F020010091E5
:10205000816941F004018161806900F00400009011
:1020600008BD00000010024010B596B000240F9487
:1020700010941194129413941C2108A81494FEF740
:10208000E8F820216846FEF7E4F829482749C0E926
:10209000001440F26671C0E9024180210461C0E988
:1020A0000541FFF79DF908B1FEF799F94FF480500B
:1020B0000F900FA91E48FFF765FA08B1FEF78FF9D8
:1020C0001B48FFF784FD08B1FEF789F9139413A9A3
:1020D00017481494FFF750F908B1FEF780F9602013
:1020E000089040F2B330CDE909040B940C940D94A0
:1020F000002208A90E480E94FFF703FD08B1FEF771
:102100006EF900944FF40050CDE90440029401941C
:102110000394694606480794FFF704F908B1FEF7EF
:102120005EF90348FFF7C6FC16B010BD002C014055
:102130007400002010B58AB000242248049405944D
:1021400006940794089409940094019402944FF023
:102150008041039401604721C0E901144FF6FF71EB
:10216000C0E903148461FFF73BF908B1FEF737F9C2
:102170004FF48050049004A91248FFF703FA08B105
:10218000FEF72DF90F48FFF75DFB08B1FEF727F9C1
:10219000089408A90B480994FFF7EEF808B1FEF778
:1021A0001EF90120CDE9004002940022694605484D
:1021B0000394FFF7B5FA002801D0FEF710F90AB032
:1021C00010BD0000BC00002010B586B000241748E8
:1021D00000940194029403940494134905940160BB
:1021E0004721C0E901144FF47A71C0E9031480213A
:1021F0008161FFF7F5F808B1FEF7F1F84FF4805070
:10220000009069460948FFF7BDF908B1FEF7E7F805
:10221000049404A905480594FFF7AEF8002801D0FE
:10222000FEF7DDF806B010BD0004004004010020F8
:10223000FEE7FEE770477047FEF77ABD30B58FB016
:1022400028216846FEF705F814210AA8FEF701F8D0
:1022500001210804CDE90010002402940225049114
:10226000CDE907504FF4E01009906846FEF7B4FE40
:1022700008B172B6FEE70F20CDE90A054FF4806081
:10228000CDE90C4002210AA80E94FEF7E9FD0028D2
:1022900001D072B6FEE70FB030BD70470148FFF7BE
:1022A00071BB0000BC0000200148FFF76BBB0000C1
:1022B00004010020F0B50268194B1A4C1A4D4FF07A
:1022C0008047984205D0B84203D0A04201D0A8422E
:1022D00003D122F070064A683243984205D0B842D2
:1022E00003D0A04201D0A84203D122F44074CA68AE
:1022F00022434C6922F08002224302608A68C26253
:102300000A688262984201D1096901630121416131
:102310000169C90703D0016921F001010161F0BD24
:10232000002C0140000400400008004010B501F0FE
:102330001F030121046A99408C430462016A9A4098
:102340001143016210BD10B5846842EA032224F4EF
:102350007F440A432243826010BD826822F07002EB
:102360000A4342F0070181607047000030B5036AFC
:10237000026A22F0010202624268846924F0730555
:102380000C682C4323F002058B682B430A4DA842AE
:102390000BD123F00805CB6822F440722B434D6922
:1023A00023F0040315438A692A4342608461496823
:1023B0004163036230BD0000002C014030B5026A69
:1023C000036A23F010030362436884690D6824F4F0
:1023D000E64444EA05248D6822F0200242EA051210
:1023E0000B4DA8420ED1CD6822F0800242EA0512C0
:1023F0004D6923F4406343EA85038D6922F040026E
:1024000043EA85034360846149688163026230BDA9
:10241000002C014030B5036A026A22F48072026225
:102420004268C46923F4007324F073050C682C43DC
:102430008D6843EA05230C4DA8420ED1CD6823F4E4
:10244000006343EA05234D6922F4405242EA051233
:102450008D6923F4806342EA05124260C4614968D1
:10246000C163036230BD0000002C014030B5046A36
:10247000026A22F4805202624268C3690D6823F442
:10248000E64343EA05238D6824F4005444EA053406
:10249000064DA84204D14D6922F4804242EA8512D9
:1024A0004260C36149680164046230BD002C014090
:1024B00010B5036A046A24F001040462846924F0FC
:1024C000F00444EA021423F00A020A43846102621F
:1024D00010BD000070B5056A046A24F001040462AE
:1024E00084690F4EB04208D0B0F1804F05D00D4E38
:1024F000B04202D00C4EB04203D124F00304144386
:1025000001E044F001041A0724F0F00444EA1262E6
:1025100025F00A0301F00A0119438261016270BDCE
:10252000002C0140000400400008004010B5036A80
:10253000046A24F010040462846923F0A00324F4E4
:10254000704444EA023243EA01118261016210BD23
:1025500030B5046A056A25F010050562856925F421
:10256000407545EA022222F470454FF6FF7202EAF6
:10257000033224F0A0032A43A02404EA01111943E2
:102580008261016230BDFEE70907090E002804DB05
:1025900000F1E02080F80014704700F00F0000F117
:1025A000E02080F8141D7047FEF7CAFBFFF746FED7
:1025B000FFF744FDFFF7BEFDFFF706FEFFF754FDF2
:1025C000FFF704FDFFF704FC114C0026114D124FDC
:1025D0004FF40078FFF7EAFB207838B1FFF714FCDE
:1025E00020B9267008210D48FFF714FC2878002830
:1025F000F0D02E7008210848FFF7BFFB397A8142DE
:10260000E8D1424608210448FDF7C6FEE2E7000093
:102610000C000020020000204000002014000020D8
:10262000010202030405060708090A0B0C0D0E0F30
:102630001010000000000000000001020304060763
:102640000809000064260008000000202C0000009B
:1026500028010008902600082C00002084070000B4
:10266000440100080000000000000000000000001D
:10267000000000000000000000000000000000005A
:1026800001000000100000000000000000127A00AD
:04000005080000ED02
:00000001FF
